{
  "contractName": "Leverage",
  "abi": [
    {
      "inputs": [
        {
          "internalType": "address",
          "name": "comptrollerAddress",
          "type": "address"
        },
        {
          "internalType": "address",
          "name": "cDaiAddress",
          "type": "address"
        },
        {
          "internalType": "address",
          "name": "daiAddress",
          "type": "address"
        }
      ],
      "stateMutability": "nonpayable",
      "type": "constructor"
    },
    {
      "inputs": [
        {
          "internalType": "uint256",
          "name": "num",
          "type": "uint256"
        }
      ],
      "name": "double",
      "outputs": [
        {
          "internalType": "uint256",
          "name": "",
          "type": "uint256"
        }
      ],
      "stateMutability": "pure",
      "type": "function",
      "constant": true
    },
    {
      "inputs": [
        {
          "internalType": "uint256",
          "name": "initialAmount",
          "type": "uint256"
        }
      ],
      "name": "openPosition",
      "outputs": [],
      "stateMutability": "nonpayable",
      "type": "function"
    },
    {
      "inputs": [],
      "name": "closePosition",
      "outputs": [],
      "stateMutability": "nonpayable",
      "type": "function"
    }
  ],
  "bytecode": "0x6080604052604660035534801561001557600080fd5b50604051610b1f380380610b1f8339818101604052606081101561003857600080fd5b81019080805190602001909291908051906020019092919080519060200190929190505050826000806101000a81548173ffffffffffffffffffffffffffffffffffffffff021916908373ffffffffffffffffffffffffffffffffffffffff16021790555081600160006101000a81548173ffffffffffffffffffffffffffffffffffffffff021916908373ffffffffffffffffffffffffffffffffffffffff16021790555080600260006101000a81548173ffffffffffffffffffffffffffffffffffffffff021916908373ffffffffffffffffffffffffffffffffffffffff160217905550606060016040519080825280602002602001820160405280156101515781602001602082028038833980820191505090505b509050828160008151811061016257fe5b602002602001019073ffffffffffffffffffffffffffffffffffffffff16908173ffffffffffffffffffffffffffffffffffffffff16815250506000809054906101000a900473ffffffffffffffffffffffffffffffffffffffff1673ffffffffffffffffffffffffffffffffffffffff1663c2998238826040518263ffffffff1660e01b81526004018080602001828103825283818151815260200191508051906020019060200280838360005b8381101561022c578082015181840152602081019050610211565b5050505090500192505050600060405180830381600087803b15801561025157600080fd5b505af1158015610265573d6000803e3d6000fd5b505050506040513d6000823e3d601f19601f82011682018060405250602081101561028f57600080fd5b81019080805160405193929190846401000000008211156102af57600080fd5b838201915060208201858111156102c557600080fd5b82518660208202830111640100000000821117156102e257600080fd5b8083526020830192505050908051906020019060200280838360005b838110156103195780820151818401526020810190506102fe565b5050505090500160405250505050505050506107e58061033a6000396000f3fe608060405234801561001057600080fd5b50600436106100415760003560e01c806399ff820314610046578063c393d0e314610074578063eee972061461007e575b600080fd5b6100726004803603602081101561005c57600080fd5b81019080803590602001909291905050506100c0565b005b61007c6100f1565b005b6100aa6004803603602081101561009457600080fd5b810190808035906020019092919050505061051c565b6040518082815260200191505060405180910390f35b600081905060008090505b60058110156100ec576100dd82610529565b915080806001019150506100cb565b505050565b6000600160009054906101000a900473ffffffffffffffffffffffffffffffffffffffff1673ffffffffffffffffffffffffffffffffffffffff166317bfdfbc306040518263ffffffff1660e01b8152600401808273ffffffffffffffffffffffffffffffffffffffff1673ffffffffffffffffffffffffffffffffffffffff168152602001915050602060405180830381600087803b15801561019457600080fd5b505af11580156101a8573d6000803e3d6000fd5b505050506040513d60208110156101be57600080fd5b81019080805190602001909291905050509050600260009054906101000a900473ffffffffffffffffffffffffffffffffffffffff1673ffffffffffffffffffffffffffffffffffffffff1663095ea7b3600160009054906101000a900473ffffffffffffffffffffffffffffffffffffffff16836040518363ffffffff1660e01b8152600401808373ffffffffffffffffffffffffffffffffffffffff1673ffffffffffffffffffffffffffffffffffffffff16815260200182815260200192505050602060405180830381600087803b15801561029c57600080fd5b505af11580156102b0573d6000803e3d6000fd5b505050506040513d60208110156102c657600080fd5b810190808051906020019092919050505050600160009054906101000a900473ffffffffffffffffffffffffffffffffffffffff1673ffffffffffffffffffffffffffffffffffffffff16630e752702826040518263ffffffff1660e01b815260040180828152602001915050602060405180830381600087803b15801561034d57600080fd5b505af1158015610361573d6000803e3d6000fd5b505050506040513d602081101561037757600080fd5b8101908080519060200190929190505050506000600160009054906101000a900473ffffffffffffffffffffffffffffffffffffffff1673ffffffffffffffffffffffffffffffffffffffff166370a08231306040518263ffffffff1660e01b8152600401808273ffffffffffffffffffffffffffffffffffffffff1673ffffffffffffffffffffffffffffffffffffffff16815260200191505060206040518083038186803b15801561042a57600080fd5b505afa15801561043e573d6000803e3d6000fd5b505050506040513d602081101561045457600080fd5b81019080805190602001909291905050509050600160009054906101000a900473ffffffffffffffffffffffffffffffffffffffff1673ffffffffffffffffffffffffffffffffffffffff1663db006a75826040518263ffffffff1660e01b815260040180828152602001915050602060405180830381600087803b1580156104dc57600080fd5b505af11580156104f0573d6000803e3d6000fd5b505050506040513d602081101561050657600080fd5b8101908080519060200190929190505050505050565b6000600282029050919050565b6000600260009054906101000a900473ffffffffffffffffffffffffffffffffffffffff1673ffffffffffffffffffffffffffffffffffffffff1663095ea7b3600160009054906101000a900473ffffffffffffffffffffffffffffffffffffffff16846040518363ffffffff1660e01b8152600401808373ffffffffffffffffffffffffffffffffffffffff1673ffffffffffffffffffffffffffffffffffffffff16815260200182815260200192505050602060405180830381600087803b1580156105f657600080fd5b505af115801561060a573d6000803e3d6000fd5b505050506040513d602081101561062057600080fd5b810190808051906020019092919050505050600160009054906101000a900473ffffffffffffffffffffffffffffffffffffffff1673ffffffffffffffffffffffffffffffffffffffff1663a0712d68836040518263ffffffff1660e01b815260040180828152602001915050602060405180830381600087803b1580156106a757600080fd5b505af11580156106bb573d6000803e3d6000fd5b505050506040513d60208110156106d157600080fd5b8101908080519060200190929190505050506000606460468402816106f257fe5b049050600160009054906101000a900473ffffffffffffffffffffffffffffffffffffffff1673ffffffffffffffffffffffffffffffffffffffff1663c5ebeaec826040518263ffffffff1660e01b815260040180828152602001915050602060405180830381600087803b15801561076a57600080fd5b505af115801561077e573d6000803e3d6000fd5b505050506040513d602081101561079457600080fd5b8101908080519060200190929190505050508091505091905056fea2646970667358221220d8eed3a468806a09fd94b16085afb32cd1d7fbd51c06085c6f84979ca415996764736f6c63430006000033",
  "source": "pragma solidity ^0.6.0;\n\nimport './Icomptroller.sol';\nimport './IcToken.sol';\nimport './IERC20.sol';\n\ncontract Leverage {\n  Icomptroller comptroller;\n  IcToken cDai;\n  IERC20 dai;\n  uint borrowFactor = 70;\n\n  constructor(\n    address comptrollerAddress,\n    address cDaiAddress,\n    address daiAddress\n  ) public {\n    comptroller = Icomptroller(comptrollerAddress);\n    cDai = IcToken(cDaiAddress);\n    dai = IERC20(daiAddress);\n    address[] memory cTokens = new address[](1);\n    cTokens[0] = cDaiAddress;\n    comptroller.enterMarkets(cTokens);\n  }\n\n  // double a number\n  function double(uint num) external pure returns(uint) {\n    return(num * 2);\n  }\n\n  // open a new leveraged position\n  function openPosition(uint initialAmount) external {\n    uint nextCollateralAmount = initialAmount;\n    for(uint i = 0; i < 5; i++) {\n      nextCollateralAmount = _supplyAndBorrow(nextCollateralAmount);\n    }\n  }\n\n  // supply tokens and borrow more\n  function _supplyAndBorrow(uint collateralAmount) internal returns(uint) {\n    dai.approve(address(cDai), collateralAmount);\n    cDai.mint(collateralAmount);\n    uint borrowAmount = (collateralAmount * 70) / 100;\n    cDai.borrow(borrowAmount);\n    return borrowAmount;\n  }\n\n  // close leveraged position\n  function closePosition() external {\n    uint balanceBorrow = cDai.borrowBalanceCurrent(address(this));\n    dai.approve(address(cDai), balanceBorrow);\n    cDai.repayBorrow(balanceBorrow);\n    uint balancecDai = cDai.balanceOf(address(this));\n    cDai.redeem(balancecDai);\n  }\n\n}",
  "sourcePath": "/home/nick/Documents/uniswap-truffle/contracts/Leverage.sol",
  "compiler": {
    "name": "solc",
    "version": "0.6.0+commit.26b70077.Emscripten.clang"
  },
  "schemaVersion": "3.3.2",
  "updatedAt": "2020-12-11T16:14:31.394Z",
  "networkType": "ethereum",
  "devdoc": {
    "methods": {}
  },
  "userdoc": {
    "methods": {}
  }
}