{
  "contractName": "Swap",
  "abi": [
    {
      "inputs": [
        {
          "internalType": "address",
          "name": "_uniswap",
          "type": "address"
        }
      ],
      "payable": false,
      "stateMutability": "nonpayable",
      "type": "constructor"
    },
    {
      "constant": false,
      "inputs": [
        {
          "internalType": "address",
          "name": "_token",
          "type": "address"
        },
        {
          "internalType": "uint256",
          "name": "_amountOutMin",
          "type": "uint256"
        },
        {
          "internalType": "uint256",
          "name": "_deadline",
          "type": "uint256"
        }
      ],
      "name": "swapExactETHForTokens",
      "outputs": [],
      "payable": true,
      "stateMutability": "payable",
      "type": "function"
    },
    {
      "constant": false,
      "inputs": [
        {
          "internalType": "address",
          "name": "_token",
          "type": "address"
        },
        {
          "internalType": "uint256",
          "name": "_amountIn",
          "type": "uint256"
        },
        {
          "internalType": "uint256",
          "name": "_amountOutMin",
          "type": "uint256"
        },
        {
          "internalType": "uint256",
          "name": "_deadline",
          "type": "uint256"
        }
      ],
      "name": "swapExactTokensForETH",
      "outputs": [],
      "payable": false,
      "stateMutability": "nonpayable",
      "type": "function"
    }
  ],
  "bytecode": "0x608060405234801561001057600080fd5b50604051610b07380380610b078339818101604052602081101561003357600080fd5b8101908080519060200190929190505050806000806101000a81548173ffffffffffffffffffffffffffffffffffffffff021916908373ffffffffffffffffffffffffffffffffffffffff16021790555050610a73806100946000396000f3fe6080604052600436106100295760003560e01c80638d2abc121461002e578063eacad12a14610086575b600080fd5b6100846004803603606081101561004457600080fd5b81019080803573ffffffffffffffffffffffffffffffffffffffff16906020019092919080359060200190929190803590602001909291905050506100f5565b005b34801561009257600080fd5b506100f3600480360360808110156100a957600080fd5b81019080803573ffffffffffffffffffffffffffffffffffffffff169060200190929190803590602001909291908035906020019092919080359060200190929190505050610437565b005b60008390506060600260405190808252806020026020018201604052801561012c5781602001602082028038833980820191505090505b5090506000809054906101000a900473ffffffffffffffffffffffffffffffffffffffff1673ffffffffffffffffffffffffffffffffffffffff1663ad5c46486040518163ffffffff1660e01b815260040160206040518083038186803b15801561019657600080fd5b505afa1580156101aa573d6000803e3d6000fd5b505050506040513d60208110156101c057600080fd5b8101908080519060200190929190505050816000815181106101de57fe5b602002602001019073ffffffffffffffffffffffffffffffffffffffff16908173ffffffffffffffffffffffffffffffffffffffff1681525050818160018151811061022657fe5b602002602001019073ffffffffffffffffffffffffffffffffffffffff16908173ffffffffffffffffffffffffffffffffffffffff16815250506000809054906101000a900473ffffffffffffffffffffffffffffffffffffffff1673ffffffffffffffffffffffffffffffffffffffff16637ff36ab534868433886040518663ffffffff1660e01b815260040180858152602001806020018473ffffffffffffffffffffffffffffffffffffffff1673ffffffffffffffffffffffffffffffffffffffff168152602001838152602001828103825285818151815260200191508051906020019060200280838360005b83811015610332578082015181840152602081019050610317565b50505050905001955050505050506000604051808303818588803b15801561035957600080fd5b505af115801561036d573d6000803e3d6000fd5b50505050506040513d6000823e3d601f19601f82011682018060405250602081101561039857600080fd5b81019080805160405193929190846401000000008211156103b857600080fd5b838201915060208201858111156103ce57600080fd5b82518660208202830111640100000000821117156103eb57600080fd5b8083526020830192505050908051906020019060200280838360005b83811015610422578082015181840152602081019050610407565b50505050905001604052505050505050505050565b60008490508073ffffffffffffffffffffffffffffffffffffffff166323b872dd3330876040518463ffffffff1660e01b8152600401808473ffffffffffffffffffffffffffffffffffffffff1673ffffffffffffffffffffffffffffffffffffffff1681526020018373ffffffffffffffffffffffffffffffffffffffff1673ffffffffffffffffffffffffffffffffffffffff1681526020018281526020019350505050602060405180830381600087803b1580156104f757600080fd5b505af115801561050b573d6000803e3d6000fd5b505050506040513d602081101561052157600080fd5b81019080805190602001909291905050506105a4576040517f08c379a00000000000000000000000000000000000000000000000000000000081526004018080602001828103825260148152602001807f7472616e7366657246726f6d206661696c65642e00000000000000000000000081525060200191505060405180910390fd5b606060026040519080825280602002602001820160405280156105d65781602001602082028038833980820191505090505b50905081816000815181106105e757fe5b602002602001019073ffffffffffffffffffffffffffffffffffffffff16908173ffffffffffffffffffffffffffffffffffffffff16815250506000809054906101000a900473ffffffffffffffffffffffffffffffffffffffff1673ffffffffffffffffffffffffffffffffffffffff1663ad5c46486040518163ffffffff1660e01b815260040160206040518083038186803b15801561068857600080fd5b505afa15801561069c573d6000803e3d6000fd5b505050506040513d60208110156106b257600080fd5b8101908080519060200190929190505050816001815181106106d057fe5b602002602001019073ffffffffffffffffffffffffffffffffffffffff16908173ffffffffffffffffffffffffffffffffffffffff16815250508173ffffffffffffffffffffffffffffffffffffffff1663095ea7b36000809054906101000a900473ffffffffffffffffffffffffffffffffffffffff16876040518363ffffffff1660e01b8152600401808373ffffffffffffffffffffffffffffffffffffffff1673ffffffffffffffffffffffffffffffffffffffff16815260200182815260200192505050602060405180830381600087803b1580156107b257600080fd5b505af11580156107c6573d6000803e3d6000fd5b505050506040513d60208110156107dc57600080fd5b810190808051906020019092919050505061085f576040517f08c379a00000000000000000000000000000000000000000000000000000000081526004018080602001828103825260188152602001807f756e697377617020617070726f76652829206661696c6564000000000000000081525060200191505060405180910390fd5b6000809054906101000a900473ffffffffffffffffffffffffffffffffffffffff1673ffffffffffffffffffffffffffffffffffffffff166318cbafe586868433886040518663ffffffff1660e01b815260040180868152602001858152602001806020018473ffffffffffffffffffffffffffffffffffffffff1673ffffffffffffffffffffffffffffffffffffffff168152602001838152602001828103825285818151815260200191508051906020019060200280838360005b8381101561093757808201518184015260208101905061091c565b505050509050019650505050505050600060405180830381600087803b15801561096057600080fd5b505af1158015610974573d6000803e3d6000fd5b505050506040513d6000823e3d601f19601f82011682018060405250602081101561099e57600080fd5b81019080805160405193929190846401000000008211156109be57600080fd5b838201915060208201858111156109d457600080fd5b82518660208202830111640100000000821117156109f157600080fd5b8083526020830192505050908051906020019060200280838360005b83811015610a28578082015181840152602081019050610a0d565b505050509050016040525050505050505050505056fea265627a7a72315820b8b5827c7b0aa155a9995c21984067d802eaf6003c3e54620009983f9ea9b6e564736f6c63430005100032",
  "source": "pragma solidity >=0.4.25 <0.7.0;\n\n// import '@uniswap/v2-core/contracts/UniswapV2Factory.sol';\n\ninterface IUniswap {\n\n    function swapExactTokensForETH(\n    uint amountIn,\n    uint amountOutMin,\n    address[] calldata path,\n    address to,\n    uint deadline)\n    external\n    returns (uint[] memory amounts);\n\n    function swapExactETHForTokens(\n    uint amountOutMin,\n    address[] calldata path,\n    address to,\n    uint deadline)\n    external\n    payable\n    returns (uint[] memory amounts);\n\n    function WETH() external pure returns (address);\n\n}\n\n\ninterface IERC20 {\n\n    event Approval(address indexed owner, address indexed spender, uint value);\n    event Transfer(address indexed from, address indexed to, uint value);\n\n    function name() external view returns (string memory);\n    function symbol() external view returns (string memory);\n    function decimals() external view returns (uint8);\n    function totalSupply() external view returns (uint);\n    function balanceOf(address owner) external view returns (uint);\n    function allowance(address owner, address spender) external view returns (uint);\n\n    function approve(address spender, uint value) external returns (bool);\n    function transfer(address to, uint value) external returns (bool);\n    function transferFrom(address sender, address recipient, uint amount) external returns (bool);\n\n}\n\ncontract Swap {\n\n    IUniswap uniswap;\n\n    // setup uniswap exchange address when a\n    // new contract is created\n    constructor(address _uniswap) public {\n        uniswap = IUniswap(_uniswap);\n\n    }\n\n    // swap ETH -> Tokens\n    function swapExactETHForTokens(\n    address _token,\n    uint _amountOutMin,\n    uint _deadline)\n    external\n    payable {\n\n        // IERC20(token).transferFrom(msg.sender, address(this), amountOutMin);\n        IERC20 token = IERC20(_token);\n\n        // create exchange path\n        address[] memory path = new address[](2);\n        path[0] = uniswap.WETH();\n        path[1] = address(token);\n\n        // execute swap\n        uniswap.swapExactETHForTokens.value(msg.value)(\n            _amountOutMin,\n            path,\n            msg.sender,\n            _deadline\n        );\n\n    }\n\n    // swap Tokens -> ETH\n    function swapExactTokensForETH(\n    address _token,\n    uint _amountIn,\n    uint _amountOutMin,\n    uint _deadline)\n    external\n    {\n\n        IERC20 token = IERC20(_token);\n\n        // approval is called outside of contract\n        // require(token.approve(address(this), _amountIn), \"contract approve() failed\");\n\n        // transfer tokens to smart contract\n        require(token.transferFrom(msg.sender, address(this), _amountIn), 'transferFrom failed.');\n\n        // construct path\n        address[] memory path = new address[](2);\n        path[0] = address(token);\n        path[1] = uniswap.WETH();\n\n        // approve tokens\n        require(token.approve(address(uniswap), _amountIn), \"uniswap approve() failed\");\n\n        // execute swap through uniswap\n        uniswap.swapExactTokensForETH(\n            _amountIn,\n            _amountOutMin,\n            path,\n            msg.sender,\n            _deadline\n        );\n\n    }\n\n}",
  "sourcePath": "/home/nick/Documents/uniswap-truffle/contracts/Swap.sol",
  "compiler": {
    "name": "solc",
    "version": "0.5.16+commit.9c3226ce.Emscripten.clang"
  },
  "schemaVersion": "3.3.2",
  "updatedAt": "2020-12-07T18:57:21.458Z",
  "networkType": "ethereum",
  "devdoc": {
    "methods": {}
  },
  "userdoc": {
    "methods": {}
  }
}